{
  "_format": "hh-sol-artifact-1",
  "contractName": "Transactions",
  "sourceName": "contracts/Transactions.sol",
  "abi": [
    {
      "anonymous": false,
      "inputs": [
        {
          "indexed": false,
          "internalType": "address",
          "name": "from",
          "type": "address"
        },
        {
          "indexed": false,
          "internalType": "address",
          "name": "receiver",
          "type": "address"
        },
        {
          "indexed": false,
          "internalType": "uint256",
          "name": "amount",
          "type": "uint256"
        },
        {
          "indexed": false,
          "internalType": "string",
          "name": "message",
          "type": "string"
        },
        {
          "indexed": false,
          "internalType": "uint256",
          "name": "timestamp",
          "type": "uint256"
        }
      ],
      "name": "Transfer",
      "type": "event"
    },
    {
      "inputs": [
        {
          "internalType": "address payable",
          "name": "receiver",
          "type": "address"
        },
        {
          "internalType": "uint256",
          "name": "amount",
          "type": "uint256"
        },
        {
          "internalType": "string",
          "name": "message",
          "type": "string"
        }
      ],
      "name": "addToBlockchain",
      "outputs": [],
      "stateMutability": "nonpayable",
      "type": "function"
    },
    {
      "inputs": [],
      "name": "getAllTransactions",
      "outputs": [
        {
          "components": [
            {
              "internalType": "address",
              "name": "sender",
              "type": "address"
            },
            {
              "internalType": "address",
              "name": "receiver",
              "type": "address"
            },
            {
              "internalType": "uint256",
              "name": "amount",
              "type": "uint256"
            },
            {
              "internalType": "string",
              "name": "message",
              "type": "string"
            },
            {
              "internalType": "uint256",
              "name": "timestamp",
              "type": "uint256"
            }
          ],
          "internalType": "struct Transactions.Transaction[]",
          "name": "",
          "type": "tuple[]"
        }
      ],
      "stateMutability": "view",
      "type": "function"
    },
    {
      "inputs": [],
      "name": "getTransactionCount",
      "outputs": [
        {
          "internalType": "uint256",
          "name": "",
          "type": "uint256"
        }
      ],
      "stateMutability": "view",
      "type": "function"
    }
  ],
  "bytecode": "0x608060405234801561001057600080fd5b50610a8e806100206000396000f3fe608060405234801561001057600080fd5b50600436106100415760003560e01c806327506f53146100465780632e7700f014610064578063eb12da4a14610082575b600080fd5b61004e61009e565b60405161005b91906107ca565b60405180910390f35b61006c61024f565b60405161007991906107ec565b60405180910390f35b61009c60048036038101906100979190610552565b610258565b005b60606001805480602002602001604051908101604052809291908181526020016000905b8282101561024657838290600052602060002090600502016040518060a00160405290816000820160009054906101000a900473ffffffffffffffffffffffffffffffffffffffff1673ffffffffffffffffffffffffffffffffffffffff1673ffffffffffffffffffffffffffffffffffffffff1681526020016001820160009054906101000a900473ffffffffffffffffffffffffffffffffffffffff1673ffffffffffffffffffffffffffffffffffffffff1673ffffffffffffffffffffffffffffffffffffffff168152602001600282015481526020016003820180546101ab90610989565b80601f01602080910402602001604051908101604052809291908181526020018280546101d790610989565b80156102245780601f106101f957610100808354040283529160200191610224565b820191906000526020600020905b81548152906001019060200180831161020757829003601f168201915b50505050508152602001600482015481525050815260200190600101906100c2565b50505050905090565b60008054905090565b600160008082825461026a919061086d565b9250508190555060016040518060a001604052803373ffffffffffffffffffffffffffffffffffffffff1681526020018673ffffffffffffffffffffffffffffffffffffffff16815260200185815260200184848080601f016020809104026020016040519081016040528093929190818152602001838380828437600081840152601f19601f82011690508083019250505050505050815260200142815250908060018154018082558091505060019003906000526020600020906005020160009091909190915060008201518160000160006101000a81548173ffffffffffffffffffffffffffffffffffffffff021916908373ffffffffffffffffffffffffffffffffffffffff16021790555060208201518160010160006101000a81548173ffffffffffffffffffffffffffffffffffffffff021916908373ffffffffffffffffffffffffffffffffffffffff1602179055506040820151816002015560608201518160030190805190602001906103e792919061043b565b506080820151816004015550507fc4b32d7ff75a51e487f3cbb5d3202f2efecca1f4c2b987e0039c1d3220b48a8333858585854260405161042d9695949392919061076e565b60405180910390a150505050565b82805461044790610989565b90600052602060002090601f01602090048101928261046957600085556104b0565b82601f1061048257805160ff19168380011785556104b0565b828001600101855582156104b0579182015b828111156104af578251825591602001919060010190610494565b5b5090506104bd91906104c1565b5090565b5b808211156104da5760008160009055506001016104c2565b5090565b6000813590506104ed81610a2a565b92915050565b60008083601f84011261050557600080fd5b8235905067ffffffffffffffff81111561051e57600080fd5b60208301915083600182028301111561053657600080fd5b9250929050565b60008135905061054c81610a41565b92915050565b6000806000806060858703121561056857600080fd5b6000610576878288016104de565b94505060206105878782880161053d565b935050604085013567ffffffffffffffff8111156105a457600080fd5b6105b0878288016104f3565b925092505092959194509250565b60006105ca83836106da565b905092915050565b6105db81610911565b82525050565b6105ea816108c3565b82525050565b6105f9816108c3565b82525050565b600061060a82610817565b610614818561083a565b93508360208202850161062685610807565b8060005b85811015610662578484038952815161064385826105be565b945061064e8361082d565b925060208a0199505060018101905061062a565b50829750879550505050505092915050565b6000610680838561085c565b935061068d838584610947565b61069683610a19565b840190509392505050565b60006106ac82610822565b6106b6818561084b565b93506106c6818560208601610956565b6106cf81610a19565b840191505092915050565b600060a0830160008301516106f260008601826105e1565b50602083015161070560208601826105e1565b5060408301516107186040860182610750565b506060830151848203606086015261073082826106a1565b91505060808301516107456080860182610750565b508091505092915050565b61075981610907565b82525050565b61076881610907565b82525050565b600060a08201905061078360008301896105f0565b61079060208301886105d2565b61079d604083018761075f565b81810360608301526107b0818587610674565b90506107bf608083018461075f565b979650505050505050565b600060208201905081810360008301526107e481846105ff565b905092915050565b6000602082019050610801600083018461075f565b92915050565b6000819050602082019050919050565b600081519050919050565b600081519050919050565b6000602082019050919050565b600082825260208201905092915050565b600082825260208201905092915050565b600082825260208201905092915050565b600061087882610907565b915061088383610907565b9250827fffffffffffffffffffffffffffffffffffffffffffffffffffffffffffffffff038211156108b8576108b76109bb565b5b828201905092915050565b60006108ce826108e7565b9050919050565b60006108e0826108e7565b9050919050565b600073ffffffffffffffffffffffffffffffffffffffff82169050919050565b6000819050919050565b600061091c82610923565b9050919050565b600061092e82610935565b9050919050565b6000610940826108e7565b9050919050565b82818337600083830152505050565b60005b83811015610974578082015181840152602081019050610959565b83811115610983576000848401525b50505050565b600060028204905060018216806109a157607f821691505b602082108114156109b5576109b46109ea565b5b50919050565b7f4e487b7100000000000000000000000000000000000000000000000000000000600052601160045260246000fd5b7f4e487b7100000000000000000000000000000000000000000000000000000000600052602260045260246000fd5b6000601f19601f8301169050919050565b610a33816108d5565b8114610a3e57600080fd5b50565b610a4a81610907565b8114610a5557600080fd5b5056fea2646970667358221220ad38529020290546c861f295ff334515bf22626f7ae24a253b7901a17d2d91dd64736f6c63430008000033",
  "linkReferences": {},
  "deployedLinkReferences": {}
}